{
  "contractName": "HashBlock",
  "abi": [
    {
      "constant": true,
      "inputs": [],
      "name": "hash",
      "outputs": [
        {
          "name": "",
          "type": "string"
        }
      ],
      "payable": false,
      "stateMutability": "view",
      "type": "function"
    },
    {
      "constant": true,
      "inputs": [],
      "name": "OwnerAddress",
      "outputs": [
        {
          "name": "",
          "type": "address"
        }
      ],
      "payable": false,
      "stateMutability": "view",
      "type": "function"
    },
    {
      "constant": false,
      "inputs": [
        {
          "name": "_newOwner",
          "type": "address"
        }
      ],
      "name": "ChangeOwner",
      "outputs": [],
      "payable": false,
      "stateMutability": "nonpayable",
      "type": "function"
    },
    {
      "constant": false,
      "inputs": [
        {
          "name": "_hash",
          "type": "string"
        }
      ],
      "name": "UploadHash",
      "outputs": [],
      "payable": false,
      "stateMutability": "nonpayable",
      "type": "function"
    },
    {
      "constant": true,
      "inputs": [],
      "name": "Get",
      "outputs": [
        {
          "name": "",
          "type": "string"
        }
      ],
      "payable": false,
      "stateMutability": "view",
      "type": "function"
    }
  ],
  "bytecode": "0x6080604052336000806101000a81548173ffffffffffffffffffffffffffffffffffffffff021916908373ffffffffffffffffffffffffffffffffffffffff16021790555034801561005057600080fd5b5061068e806100606000396000f3fe60806040526004361061006d576000357c0100000000000000000000000000000000000000000000000000000000900463ffffffff16806309bd5a60146100725780637f17b05d14610102578063b1976a0214610159578063f2853292146101e9578063f84bc7911461023a575b600080fd5b34801561007e57600080fd5b50610087610302565b6040518080602001828103825283818151815260200191508051906020019080838360005b838110156100c75780820151818401526020810190506100ac565b50505050905090810190601f1680156100f45780820380516001836020036101000a031916815260200191505b509250505060405180910390f35b34801561010e57600080fd5b506101176103a0565b604051808273ffffffffffffffffffffffffffffffffffffffff1673ffffffffffffffffffffffffffffffffffffffff16815260200191505060405180910390f35b34801561016557600080fd5b5061016e6103c5565b6040518080602001828103825283818151815260200191508051906020019080838360005b838110156101ae578082015181840152602081019050610193565b50505050905090810190601f1680156101db5780820380516001836020036101000a031916815260200191505b509250505060405180910390f35b3480156101f557600080fd5b506102386004803603602081101561020c57600080fd5b81019080803573ffffffffffffffffffffffffffffffffffffffff169060200190929190505050610467565b005b34801561024657600080fd5b506103006004803603602081101561025d57600080fd5b810190808035906020019064010000000081111561027a57600080fd5b82018360208201111561028c57600080fd5b803590602001918460018302840111640100000000831117156102ae57600080fd5b91908080601f016020809104026020016040519081016040528093929190818152602001838380828437600081840152601f19601f8201169050808301925050505050505091929192905050506105a3565b005b60018054600181600116156101000203166002900480601f0160208091040260200160405190810160405280929190818152602001828054600181600116156101000203166002900480156103985780601f1061036d57610100808354040283529160200191610398565b820191906000526020600020905b81548152906001019060200180831161037b57829003601f168201915b505050505081565b6000809054906101000a900473ffffffffffffffffffffffffffffffffffffffff1681565b606060018054600181600116156101000203166002900480601f01602080910402602001604051908101604052809291908181526020018280546001816001161561010002031660029004801561045d5780601f106104325761010080835404028352916020019161045d565b820191906000526020600020905b81548152906001019060200180831161044057829003601f168201915b5050505050905090565b6000809054906101000a900473ffffffffffffffffffffffffffffffffffffffff1673ffffffffffffffffffffffffffffffffffffffff163373ffffffffffffffffffffffffffffffffffffffff1614156105a057600073ffffffffffffffffffffffffffffffffffffffff168173ffffffffffffffffffffffffffffffffffffffff16141561055f576040517f08c379a00000000000000000000000000000000000000000000000000000000081526004018080602001828103825260188152602001807f546865206e65772061646472657373206973206e756c6c2e000000000000000081525060200191505060405180910390fd5b806000806101000a81548173ffffffffffffffffffffffffffffffffffffffff021916908373ffffffffffffffffffffffffffffffffffffffff1602179055505b50565b80600190805190602001906105b99291906105bd565b5050565b828054600181600116156101000203166002900490600052602060002090601f016020900481019282601f106105fe57805160ff191683800117855561062c565b8280016001018555821561062c579182015b8281111561062b578251825591602001919060010190610610565b5b509050610639919061063d565b5090565b61065f91905b8082111561065b576000816000905550600101610643565b5090565b9056fea165627a7a72305820e10fab39e592efcb9ad81d3114eca6020580f1d89214ab804187de2a4d2565db0029",
  "source": "pragma solidity ^0.5.0;\r\n\r\ncontract HashBlock\r\n{\r\n\taddress public OwnerAddress = msg.sender;\t\t\t\t\t\t\t\t//Set the contract owner when deploy\r\n\tstring public hash;\r\n\r\n\tmodifier OnlyOwner {\r\n\t\tif(msg.sender == OwnerAddress)_;\t\t\t\t\t\t\t\t\t//Only The contract owner\r\n\t}\r\n\r\n\tfunction ChangeOwner(address _newOwner) public OnlyOwner\t\t\t\t//Transfer the ownership to other address\r\n\t{\r\n\t\tif(_newOwner == address(0))revert(\"The new address is null.\");\t\t//Check the address is not null(0x0)\r\n\t\tOwnerAddress = _newOwner;\r\n\t}\r\n\r\n\tfunction UploadHash(string memory _hash) public\t\t\t\t\t\t\t\t\t//Upload the hash\r\n\t{\r\n\t\thash = _hash;\r\n\t}\r\n\t\r\n\tfunction Get() view public returns (string memory) {\t\t\t\t\t\t\t\t//View the hash by calling this function, callback do not need gas\r\n\t\treturn hash;\r\n  }\r\n}",
  "sourcePath": "/Users/stevenpoon/Documents/Workingplace/blockChain/nodejsBlockChainTruffle/contracts/HashBlockv2.sol",
  "compiler": {
    "name": "solc",
    "version": "0.5.0+commit.1d4f565a.Emscripten.clang"
  },
  "schemaVersion": "3.0.2",
  "updatedAt": "2019-03-09T06:09:13.525Z",
  "devdoc": {
    "methods": {}
  },
  "userdoc": {
    "methods": {}
  }
}