{
  "contractName": "HashBlock",
  "abi": [
    {
      "constant": true,
      "inputs": [],
      "name": "OwnerAddress",
      "outputs": [
        {
          "name": "",
          "type": "address"
        }
      ],
      "payable": false,
      "stateMutability": "view",
      "type": "function"
    },
    {
      "constant": false,
      "inputs": [
        {
          "name": "_newOwner",
          "type": "address"
        }
      ],
      "name": "ChangeOwner",
      "outputs": [],
      "payable": false,
      "stateMutability": "nonpayable",
      "type": "function"
    },
    {
      "constant": false,
      "inputs": [
        {
          "name": "_id",
          "type": "string"
        },
        {
          "name": "_num",
          "type": "uint256"
        },
        {
          "name": "_hash",
          "type": "string"
        }
      ],
      "name": "UploadHash",
      "outputs": [],
      "payable": false,
      "stateMutability": "nonpayable",
      "type": "function"
    },
    {
      "constant": true,
      "inputs": [
        {
          "name": "id",
          "type": "string"
        },
        {
          "name": "num",
          "type": "uint256"
        }
      ],
      "name": "Get",
      "outputs": [
        {
          "name": "",
          "type": "string"
        }
      ],
      "payable": false,
      "stateMutability": "view",
      "type": "function"
    }
  ],
  "bytecode": "0x6080604052336000806101000a81548173ffffffffffffffffffffffffffffffffffffffff021916908373ffffffffffffffffffffffffffffffffffffffff16021790555034801561005057600080fd5b5061085a806100606000396000f3fe608060405260043610610062576000357c0100000000000000000000000000000000000000000000000000000000900463ffffffff168063719955e7146100675780637f17b05d146101b2578063f285329214610209578063f7da26ff1461025a575b600080fd5b34801561007357600080fd5b506101376004803603604081101561008a57600080fd5b81019080803590602001906401000000008111156100a757600080fd5b8201836020820111156100b957600080fd5b803590602001918460018302840111640100000000831117156100db57600080fd5b91908080601f016020809104026020016040519081016040528093929190818152602001838380828437600081840152601f19601f820116905080830192505050505050509192919290803590602001909291905050506103c3565b6040518080602001828103825283818151815260200191508051906020019080838360005b8381101561017757808201518184015260208101905061015c565b50505050905090810190601f1680156101a45780820380516001836020036101000a031916815260200191505b509250505060405180910390f35b3480156101be57600080fd5b506101c761053a565b604051808273ffffffffffffffffffffffffffffffffffffffff1673ffffffffffffffffffffffffffffffffffffffff16815260200191505060405180910390f35b34801561021557600080fd5b506102586004803603602081101561022c57600080fd5b81019080803573ffffffffffffffffffffffffffffffffffffffff16906020019092919050505061055f565b005b34801561026657600080fd5b506103c16004803603606081101561027d57600080fd5b810190808035906020019064010000000081111561029a57600080fd5b8201836020820111156102ac57600080fd5b803590602001918460018302840111640100000000831117156102ce57600080fd5b91908080601f016020809104026020016040519081016040528093929190818152602001838380828437600081840152601f19601f820116905080830192505050505050509192919290803590602001909291908035906020019064010000000081111561033b57600080fd5b82018360208201111561034d57600080fd5b8035906020019184600183028401116401000000008311171561036f57600080fd5b91908080601f016020809104026020016040519081016040528093929190818152602001838380828437600081840152601f19601f82011690508083019250505050505050919291929050505061069b565b005b60606000809054906101000a900473ffffffffffffffffffffffffffffffffffffffff1673ffffffffffffffffffffffffffffffffffffffff163373ffffffffffffffffffffffffffffffffffffffff161415610534576001836040518082805190602001908083835b602083101515610452578051825260208201915060208101905060208303925061042d565b6001836020036101000a038019825116818451168082178552505050505050905001915050908152602001604051809103902060000182620f42408110151561049757fe5b018054600181600116156101000203166002900480601f01602080910402602001604051908101604052809291908181526020018280546001816001161561010002031660029004801561052c5780601f106105015761010080835404028352916020019161052c565b820191906000526020600020905b81548152906001019060200180831161050f57829003601f168201915b505050505090505b92915050565b6000809054906101000a900473ffffffffffffffffffffffffffffffffffffffff1681565b6000809054906101000a900473ffffffffffffffffffffffffffffffffffffffff1673ffffffffffffffffffffffffffffffffffffffff163373ffffffffffffffffffffffffffffffffffffffff16141561069857600073ffffffffffffffffffffffffffffffffffffffff168173ffffffffffffffffffffffffffffffffffffffff161415610657576040517f08c379a00000000000000000000000000000000000000000000000000000000081526004018080602001828103825260188152602001807f546865206e65772061646472657373206973206e756c6c2e000000000000000081525060200191505060405180910390fd5b806000806101000a81548173ffffffffffffffffffffffffffffffffffffffff021916908373ffffffffffffffffffffffffffffffffffffffff1602179055505b50565b6000809054906101000a900473ffffffffffffffffffffffffffffffffffffffff1673ffffffffffffffffffffffffffffffffffffffff163373ffffffffffffffffffffffffffffffffffffffff16141561078457806001846040518082805190602001908083835b6020831015156107295780518252602082019150602081019050602083039250610704565b6001836020036101000a038019825116818451168082178552505050505050905001915050908152602001604051809103902060000183620f42408110151561076e57fe5b019080519060200190610782929190610789565b505b505050565b828054600181600116156101000203166002900490600052602060002090601f016020900481019282601f106107ca57805160ff19168380011785556107f8565b828001600101855582156107f8579182015b828111156107f75782518255916020019190600101906107dc565b5b5090506108059190610809565b5090565b61082b91905b8082111561082757600081600090555060010161080f565b5090565b9056fea165627a7a7230582090ea0a6333ddde32ef09fe32e7b4b99da0f71169a73c88f3af0490fc378d4da30029",
  "source": "pragma solidity ^0.5.0;\r\n\r\ncontract HashBlock\r\n{\r\n\taddress public OwnerAddress = msg.sender;\t\t\t\t\t\t\t\t//Set the contract owner when deploy\r\n\t\r\n\tstruct Record\r\n\t{\r\n\t\tstring[1000000]\tA_hash;\r\n\t}\r\n\t\r\n\tmapping(string => Record) _Record;\r\n\r\n\tmodifier OnlyOwner {\r\n\t\tif(msg.sender == OwnerAddress)_;\t\t\t\t\t\t\t\t\t//Only The contract owner\r\n\t}\r\n\r\n\tfunction ChangeOwner(address _newOwner) public OnlyOwner\t\t\t\t//Transfer the ownership to other address\r\n\t{\r\n\t\tif(_newOwner == address(0))revert(\"The new address is null.\");\t\t//Check the address is not null(0x0)\r\n\t\tOwnerAddress = _newOwner;\r\n\t}\r\n\r\n\tfunction UploadHash(string memory _id, uint _num, string memory _hash) public OnlyOwner\t\t\t\t\t\t\t\t\t//Upload the hash\r\n\t{\r\n\t        _Record[_id].A_hash[_num] = _hash;\r\n\t}\r\n\t\r\n\tfunction Get(string memory id, uint num) public view OnlyOwner returns (string memory) {\r\n        return _Record[id].A_hash[num];\r\n    }\r\n}",
  "sourcePath": "/Users/iDler/Desktop/ADHoc/Compile/contracts/HashBlock.sol",
  "compiler": {
    "name": "solc",
    "version": "0.5.0+commit.1d4f565a.Emscripten.clang"
  },
  "schemaVersion": "3.0.1",
  "updatedAt": "2019-03-17T13:00:32.153Z",
  "devdoc": {
    "methods": {}
  },
  "userdoc": {
    "methods": {}
  }
}